{
  "_format": "hh3-artifact-1",
  "contractName": "PatientRegistry",
  "sourceName": "contracts/PatientRegistry.sol",
  "abi": [
    {
      "anonymous": false,
      "inputs": [
        {
          "indexed": true,
          "internalType": "address",
          "name": "patientAddress",
          "type": "address"
        },
        {
          "indexed": false,
          "internalType": "string",
          "name": "name",
          "type": "string"
        },
        {
          "indexed": false,
          "internalType": "string",
          "name": "email",
          "type": "string"
        }
      ],
      "name": "PatientRegistered",
      "type": "event"
    },
    {
      "anonymous": false,
      "inputs": [
        {
          "indexed": true,
          "internalType": "address",
          "name": "patientAddress",
          "type": "address"
        },
        {
          "indexed": false,
          "internalType": "string",
          "name": "newRecordHash",
          "type": "string"
        }
      ],
      "name": "RecordUpdated",
      "type": "event"
    },
    {
      "inputs": [],
      "name": "getMyDetails",
      "outputs": [
        {
          "internalType": "string",
          "name": "name",
          "type": "string"
        },
        {
          "internalType": "string",
          "name": "email",
          "type": "string"
        },
        {
          "internalType": "string",
          "name": "dob",
          "type": "string"
        },
        {
          "internalType": "string",
          "name": "recordHash",
          "type": "string"
        },
        {
          "internalType": "string",
          "name": "bloodGroup",
          "type": "string"
        }
      ],
      "stateMutability": "view",
      "type": "function"
    },
    {
      "inputs": [
        {
          "internalType": "address",
          "name": "_addr",
          "type": "address"
        }
      ],
      "name": "isUserRegistered",
      "outputs": [
        {
          "internalType": "bool",
          "name": "",
          "type": "bool"
        }
      ],
      "stateMutability": "view",
      "type": "function"
    },
    {
      "inputs": [
        {
          "internalType": "string",
          "name": "_name",
          "type": "string"
        },
        {
          "internalType": "string",
          "name": "_email",
          "type": "string"
        },
        {
          "internalType": "string",
          "name": "_dob",
          "type": "string"
        },
        {
          "internalType": "string",
          "name": "_bloodGroup",
          "type": "string"
        },
        {
          "internalType": "string",
          "name": "_hash",
          "type": "string"
        }
      ],
      "name": "registerPatient",
      "outputs": [],
      "stateMutability": "nonpayable",
      "type": "function"
    },
    {
      "inputs": [
        {
          "internalType": "string",
          "name": "_newHash",
          "type": "string"
        }
      ],
      "name": "updateRecord",
      "outputs": [],
      "stateMutability": "nonpayable",
      "type": "function"
    }
  ],
  "bytecode": "0x6080604052348015600e575f5ffd5b50610b908061001c5f395ff3fe608060405234801561000f575f5ffd5b506004361061004a575f3560e01c80631624e9851461004e578063163f752214610063578063431bbb7e146100a6578063711e941c146100bf575b5f5ffd5b61006161005c3660046107e2565b6100d2565b005b61009161007136600461081c565b6001600160a01b03165f9081526020819052604090206005015460ff1690565b60405190151581526020015b60405180910390f35b6100ae610198565b60405161009d959493929190610877565b6100616100cd3660046108e3565b610523565b335f9081526020819052604090206005015460ff166101385760405162461bcd60e51b815260206004820181905260248201527f4c6f693a2042616e20636875612064616e67206b792074686f6e672074696e2160448201526064015b60405180910390fd5b335f9081526020819052604090206004016101538282610a4a565b50336001600160a01b03167fcbb1b4c24d9260bba47f2146590804a946328be68decda465172d3750cbae46e8260405161018d9190610b05565b60405180910390a250565b335f90815260208190526040902060050154606090819081908190819060ff166102045760405162461bcd60e51b815260206004820181905260248201527f4c6f693a2042616e20636875612064616e67206b792074686f6e672074696e21604482015260640161012f565b335f90815260208190526040808220815160c0810190925280548290829061022b906109c6565b80601f0160208091040260200160405190810160405280929190818152602001828054610257906109c6565b80156102a25780601f10610279576101008083540402835291602001916102a2565b820191905f5260205f20905b81548152906001019060200180831161028557829003601f168201915b505050505081526020016001820180546102bb906109c6565b80601f01602080910402602001604051908101604052809291908181526020018280546102e7906109c6565b80156103325780601f1061030957610100808354040283529160200191610332565b820191905f5260205f20905b81548152906001019060200180831161031557829003601f168201915b5050505050815260200160028201805461034b906109c6565b80601f0160208091040260200160405190810160405280929190818152602001828054610377906109c6565b80156103c25780601f10610399576101008083540402835291602001916103c2565b820191905f5260205f20905b8154815290600101906020018083116103a557829003601f168201915b505050505081526020016003820180546103db906109c6565b80601f0160208091040260200160405190810160405280929190818152602001828054610407906109c6565b80156104525780601f1061042957610100808354040283529160200191610452565b820191905f5260205f20905b81548152906001019060200180831161043557829003601f168201915b5050505050815260200160048201805461046b906109c6565b80601f0160208091040260200160405190810160405280929190818152602001828054610497906109c6565b80156104e25780601f106104b9576101008083540402835291602001916104e2565b820191905f5260205f20905b8154815290600101906020018083116104c557829003601f168201915b50505091835250506005919091015460ff16151560209182015281519082015160408301516080840151606090940151929a91995097509195509350915050565b335f9081526020819052604090206005015460ff16156105855760405162461bcd60e51b815260206004820152601c60248201527f4c6f693a205669206e61792064612064756f632064616e67206b792100000000604482015260640161012f565b5f6001600160a01b031660018560405161059f9190610b17565b908152604051908190036020019020546001600160a01b0316146106055760405162461bcd60e51b815260206004820152601f60248201527f4c6f693a20456d61696c206e61792064612064756f632073752064756e672100604482015260640161012f565b6040805160c08101825286815260208082018790528183018690526060820185905260808201849052600160a0830152335f9081529081905291909120815181906106509082610a4a565b50602082015160018201906106659082610a4a565b506040820151600282019061067a9082610a4a565b506060820151600382019061068f9082610a4a565b50608082015160048201906106a49082610a4a565b5060a091909101516005909101805460ff191691151591909117905560405133906001906106d3908790610b17565b90815260405190819003602001812080546001600160a01b03939093166001600160a01b03199093169290921790915533907f5aad8bc7ad9861b16c6d01a65f54118dfe585a51e408ac2e7b9499148d515c41906107349088908890610b2d565b60405180910390a25050505050565b634e487b7160e01b5f52604160045260245ffd5b5f82601f830112610766575f5ffd5b813567ffffffffffffffff81111561078057610780610743565b604051601f8201601f19908116603f0116810167ffffffffffffffff811182821017156107af576107af610743565b6040528181528382016020018510156107c6575f5ffd5b816020850160208301375f918101602001919091529392505050565b5f602082840312156107f2575f5ffd5b813567ffffffffffffffff811115610808575f5ffd5b61081484828501610757565b949350505050565b5f6020828403121561082c575f5ffd5b81356001600160a01b0381168114610842575f5ffd5b9392505050565b5f81518084528060208401602086015e5f602082860101526020601f19601f83011685010191505092915050565b60a081525f61088960a0830188610849565b828103602084015261089b8188610849565b905082810360408401526108af8187610849565b905082810360608401526108c38186610849565b905082810360808401526108d78185610849565b98975050505050505050565b5f5f5f5f5f60a086880312156108f7575f5ffd5b853567ffffffffffffffff81111561090d575f5ffd5b61091988828901610757565b955050602086013567ffffffffffffffff811115610935575f5ffd5b61094188828901610757565b945050604086013567ffffffffffffffff81111561095d575f5ffd5b61096988828901610757565b935050606086013567ffffffffffffffff811115610985575f5ffd5b61099188828901610757565b925050608086013567ffffffffffffffff8111156109ad575f5ffd5b6109b988828901610757565b9150509295509295909350565b600181811c908216806109da57607f821691505b6020821081036109f857634e487b7160e01b5f52602260045260245ffd5b50919050565b601f821115610a4557805f5260205f20601f840160051c81016020851015610a235750805b601f840160051c820191505b81811015610a42575f8155600101610a2f565b50505b505050565b815167ffffffffffffffff811115610a6457610a64610743565b610a7881610a7284546109c6565b846109fe565b6020601f821160018114610aaa575f8315610a935750848201515b5f19600385901b1c1916600184901b178455610a42565b5f84815260208120601f198516915b82811015610ad95787850151825560209485019460019092019101610ab9565b5084821015610af657868401515f19600387901b60f8161c191681555b50505050600190811b01905550565b602081525f6108426020830184610849565b5f82518060208501845e5f920191825250919050565b604081525f610b3f6040830185610849565b8281036020840152610b518185610849565b9594505050505056fea264697066735822122021390b25fbc516c8d0171f0bde314decfb5f2cac6052d9e9e99e0088c70ca96564736f6c634300081c0033",
  "linkReferences": {},
  "deployedLinkReferences": {},
  "immutableReferences": {},
  "inputSourceName": "project/contracts/PatientRegistry.sol",
  "buildInfoId": "solc-0_8_28-6f4abba44f5479a85e079c2d2382aa38180c7d3a"
}